:1000000002308A00F82A00008C20E334A01EA012DF
:100010007510C432F232E33200002C3084008313B6
:100020000008031921280130F800F701F70B162802
:10003000F80B15284A30F700F70B1C281F28800BF7
:1000400013280800330EF039F7000F300605770447
:100050008600000006142C28061008000608F70089
:10006000060E0F39F80008008316061086100611D8
:10007000831286100F3083160605F038860083122F
:1000800006150000061400002E207808B3000610A4
:100090000000061400002E207808B20006100F3071
:1000A0008316060586008312330EF700F030F7053D
:1000B00077083204F8007808B200B21B3A28301CE6
:1000C0008610301886140000061100000610310E4C
:1000D000B2000F30B2053208B300222031080F39C8
:1000E000B200B300222008002830A5000C30A60082
:1000F0000130A7000630A8000610861006110F3048
:100100008316060586000610861006110F3083122E
:10011000AC000D200130A4002408033C031C9828E7
:100120000330B30022200530AC000D20A40A8C2837
:100130000230B30022200530AC000D20A4012408B9
:10014000033C031CAF2825302407840083130008D8
:10015000A900B0012908B1003420A40A9F288A11FF
:100160000A122E2B8E30F7002708F8002608F90017
:10017000FA01F808031DC6287908F800F9010830CB
:10018000F702F808031DC628F701CE280310F81B54
:10019000CD28F90DF80DF703C628F8138A110A12B5
:1001A000402B260803199629B2002A08031996291C
:1001B000B202031CE0287F30B20703189629E62814
:1001C0008130B202031C9629031996293208F700E0
:1001D000F801F901FA01B1012708B000B0172808A9
:1001E000AF002908AE001930B2002D08AE02031886
:1001F00009290130AF0203180929B002031809299F
:10020000B10203180929B10AB00AAF0A2D08AE07D6
:100210003B292C08AF02031824290130B00203182F
:100220002429B10203182429B10AB00A2C08AF0707
:100230002D08AE07031C3B29AF0A031D3B29B00A5A
:10024000031D3B29B10A3B292B088038B002031853
:100250003A290130B10203183A29B10A2B08803833
:10026000B0072C08AF07031C1829B00A031D182972
:10027000B10A18297A14B20B3E2949290310AE0D90
:10028000AF0DB00DB10D0310FA0DF90DF80DB30D52
:10029000F528331C51290310F80CF90CFA0CB30C97
:1002A0005429F70303199629B31B7D290310AE0DBA
:1002B000AF0DB00DB10D2D08AE0203186929013044
:1002C000AF0203186929B00203186929B102031C9F
:1002D0008C292C08AF02031874290130B0020318CE
:1002E0007429B102031C8C292B088038B002031832
:1002F0007D290130B102031C8C29FA0A031D8C29C7
:10030000F90A031D8C29F80A031D8C29F70A031921
:100310009629F80CF90CFA0C2708B2002B08B20643
:10032000B21F9429F8179A29F8139A29F701F801AE
:10033000F901FA018A110A12512B8E30F7002408B4
:10034000F7022508F9002608F800F917F70803193D
:10035000B4290310F908031DB029F8080319B429BA
:10036000F90CF80CF70BA929A51FBB29F809F90905
:10037000F80A0319F90A8A110A125A2B1230AA0232
:10038000031CD1292A3084008313FC30800503101C
:10039000800C800C00080319D129CF290000800BA4
:1003A000CE2908002D0BD529D8294030AE00D929F7
:1003B000AE0101302C02AE072E088038AF00B0012C
:1003C0002F08B100342008002B08073A0319F2293E
:1003D0000B3A0319F729063A0319FF29023A0319C0
:1003E000052A0A2A0130AC00AD00D2210F2AB00143
:1003F0000130B10034200230AC000D200F2A013052
:10040000AC000230AD00D2210F2AB0011030B10093
:1004100034200F2A0130B0002B08B100342008002E
:100420000B08A8008B13831603178C170C140000FD
:10043000000083120313A81B8B170318472A031706
:100440000C087F390313A80003170D080313A90034
:1004500003170F080313AA002808AB00E42129089A
:1004600003178D0003132A0803178F0003130B08CB
:10047000AB008B13831603178C170C1400000000BD
:1004800083120313AB1B8B17A70B472A662A03178C
:100490000C0D0E0D7F390313A80003170D0803136D
:1004A000A90003170F080313AA002808AB00E421D2
:1004B000290803178D0003132A0803178F008D0ADC
:1004C00003198F0A03100313A70B102A08002A0828
:1004D000F801290203186F2A2908F7007B2AF7017F
:1004E0000830AB00A90DF70D2A0877020318F700B2
:1004F000F80DAB0B722A0800881726302407A700D6
:100500002508A800023003180330A8072808A9000E
:10051000A90AA9030319902AFF30AA00BE21892A3B
:100520002708AA00BE2188132408FA3CA7004B30F4
:10053000A8002508031C250FA8022808A900A90A5D
:10054000A9030319A72AFF30AA00BE21A02A270861
:10055000AA00BE21043003178D0000308F00031065
:1005600007300313A70010222608A7001B30A8009D
:100570002708A9006430AA0067227708A700780836
:100580003030031DCA2AA81CD12AA819D12A281A3A
:100590002030CD2AA81128122814F8077808AB00BB
:1005A000E4212708A9000A30AA0067227708A700DB
:1005B00078083030031DE22AA819E62A281CE62A0A
:1005C000281A2030F8077808AB00E4213030A7075C
:1005D0002708AB00E421083003178D0000308F009E
:1005E000031407300313A70010228A110A12682B84
:1005F00003081F398300A101A001A301A2018316F2
:100600001F149F141F159F11831309128312900149
:100610000030F8009200003083169200F030831210
:1006200097059D0583161F109F101F119F118312A0
:100630001F139F1783169F1783121F140030F80093
:100640001F08C73978049F000130831685000030E9
:100650008800860083128601880174281F151F19DF
:100660002F2B83161E088312A0001E08A100031062
:10067000200DA400210DA500A7002408A600B22883
:100680007A08A9007908A8007808A7007708A600CA
:100690009A30AD009930AC003130AB008230AA0006
:1006A000D1287A08A7007908A6007808A50077085D
:1006B000A4009D297908A3007808A2000310A00DCA
:1006C000A10D2108A5002008A4002208A6007C2A6C
:0406D0002E2B63006A
:02400E00733B02
:00000001FF
;PIC16F877
;CRC=CD25  CREATED="01-May-22 23:20"
